:0300000002058E68
:0C058E00787FE4F6D8FD7581150201EFBE
:1005250057726F6E6720496E7075740057726F6EE3
:0B053500672046756E6374696F6E00EE
:1001EF00E4F509F50A750B2BF50CF50D12059A12AE
:1001FF0003DB0202B41202C61205A58F08120540D6
:10020F001202C6AF0812056BAF081203718E098F69
:10021F000AE50A640D450960DC1205A58F08120571
:10022F006BAF081204AD8F0BE50B646560C7120549
:10023F00A58F0812056BAF081203718E0C8F0DE599
:10024F000D640D450C60AE1205A58F0812056BE508
:10025F0008643D7048E50B24D3601724FE602D24FD
:10026F00B7601C244D708EE50A250DFFE509350C8E
:10027F00800AC3E50A950DFFE509950CFE8018ACC1
:10028F000CAD0DAE09AF0A120030800BAC0CAD0DEA
:10029F00AE09AF0A120042120423020204E508B4A9
:1002AF0043091205401202C6020204E4FFFE1204C3
:0702BF00E11202C602020475
:1002C6007F957E001205447F7712056B7F771205B6
:1002D6006B7F7712056B7F2E12056B7F5412056BB1
:1002E6007F6812056B7F6512056B7F4512056B7F74
:1002F6006E12056B7F6712056B7F6912056B7F6E49
:1003060012056B7F6512056B7F6512056B7F721296
:10031600056B7F6912056B7F6E12056B7F67120591
:100326006B7FD87E001205447F5012056B7F7212D8
:10033600056B7F6F12056B7F6A12056B7F65120571
:100346006B7F6312056B7F7412056B7F7312056BEF
:100356007F2E12056B7F6312056B7F6F12056B7F15
:0B0366006D12056B7F807E00020544D5
:0B059A00E4F5807590F0F5A0F5B022AC
:040509007F107E27BA
:10050D00E4FDFCC3ED9FEE6480F8EC648098500729
:07051D000DBD00010C80EC94
:0105240022B4
:10056B00D2B78FA0D2B67F967E0012050DC2B6020F
:02057B00050D6C
:040540007F017E00B9
:10054400C2B78FA0D2B67F967E0012050DC2B60246
:02055400050D93
:1003DB007F987E3A12050D7F307E001205447F9484
:1003EB007E1112050D7F307E001205447F2C7E019D
:1003FB0012050D7F301E1205447F8A7E0212050DF9
:10040B007F387E001205447F0C7E001205441205D6
:08041B00407F067E000205444B
:10057D007F027E001205447FDC7E0512050D02020E
:01058D00C6A7
:06046A008B118A128913B8
:10047000E4F514F515AB11AA12A913120556C3E53C
:10048000159FEE6480F8E514648098501DAB11AAA6
:1004900012A913851582851483120003FF12056BC0
:0D04A0000515E51570CF051480CB02057D14
:10010C00C290D291D292D2932094091205093094C4
:10011C00FD7F37222095091205093095FD7F382285
:10012C002096091205093096FD7F39222097091275
:10013C0005093097FD7F2F22D290C291D292D29393
:10014C002094091205093094FD7F34222095091260
:10015C0005093095FD7F3522209609120509309648
:10016C00FD7F36222097091205093097FD7F7822F2
:10017C00D290D291C292D293209409120509309454
:10018C00FD7F31222095091205093095FD7F322221
:10019C002096091205093096FD7F3322209709120B
:1001AC0005093097FD7F2D22D290D291D292C29325
:1001BC002094091205093094FD7F432220950912E1
:1001CC0005093095FD7F30222096091205093096DD
:1001DC00FD7F3D222097091205093097FD7F2B22C8
:0301EC007F6E2201
:0A05A5007F6EBF6E0512010C80F896
:0105AF002229
:10037100EF120078039A30039E3103A33203A833AE
:1003810003AD3403B23503B73603BC3703C13803B9
:10039100C63903CB43000003D0E4FEFF227E007F79
:1003A10001227E007F02227E007F03227E007F04E5
:1003B100227E007F05227E007F06227E007F0722AB
:1003C1007E007F08227E007F09221205408006E41C
:0A03D100FFFE1204E17E007F0D2202
:1004AD008F0EE50EB44305120540801FE50E642B3B
:1004BD00601FE50E642D6019E50E64786013E50E7E
:1004CD00642F600D7F017E001204E11202C67F656C
:0404DD0022AF0E221A
:1004E1008E0F8F101205401202C6E50F7006E5103F
:1004F1001460030480087BFF7A05793180067BFF55
:080501007A05792512046A2233
:04042300AB07AA0673
:10042700E4F50EF9C3EA6480948050107CFF7DFFE9
:10043700120030AA06AB077F2D12056B7C007D0AE0
:10044700AF03AE02120042A907E960062430FF128B
:10045700056BE975F00AA4FEC3EB9EF50E2430FF89
:0304670002056B20
:10000300BB010CE58229F582E5833AF583E02250B2
:1000130006E92582F8E622BBFE06E92582F8E222FC
:0D002300E58229F582E5833AF583E4932216
:10003000EF8DF0A4A8F0CF8CF0A428CE8DF0A42EE4
:02004000FE229E
:10004200C2D5EC30E709B2D5E4C39DFDE49CFCEED9
:1000520030E715B2D5E4C39FFFE49EFE1200B7C39A
:10006200E49DFDE49CFC80031200B730D507C3E495
:060072009FFFE49EFE2248
:10007800D083D082F8E4937012740193700DA3A317
:1000880093F8740193F5828883E47374029368602B
:06009800EFA3A3A380DF2B
:10055600E4FFFE12009E600C0FEF70010E09E970B9
:05056600F20A80EF2203
:10009E00BB010689828A83E0225002E722BBFE0260
:0900AE00E32289828A83E4932293
:1000B700BC000BBE0029EF8DF084FFADF022E4CC2D
:1000C700F875F008EF2FFFEE33FEEC33FCEE9DECF6
:1000D700984005FCEE9DFE0FD5F0E9E4CEFD22ED3C
:1000E700F8F5F0EE8420D21CFEADF075F008EF2F86
:1000F700FFED33FD4007985006D5F0F222C398FD77
:050107000FD5F0EA2213
:00000001FF
